:03000000021402E5
:0C140200787FE4F6D8FD75817C02144967
:0417B3000208000028
:04184A007F087E0095
:0A184E00EF1F70011E144E70F72208
:10172D00D2B012184AC2B07F5A7E0012184ED2B0F3
:10173D007F057E0012184EA2B0E433FD7F5A7E0065
:05174D0012184EAF056B
:011752002274
:10179500E4FD7C01EC6014C2B000D2B00030B002B0
:0D17A500420512184AEC25E0FC80E9AF0572
:0117B2002214
:02175300AD07E0
:10175500E4FCECC39408748094805012D2B000C2AB
:0E176500B000EDC313FD92B012184A0C80E4E0
:011773002253
:1016D90012172DEF60037F00227FCC1217537F442E
:1016E90012175312172D7FCC1217537FBE1217539F
:0D16F9001217958F081217958F097F012297
:10165C002020746172673A2025352E3266DF4300F4
:10166C002020707265733A2025352E3266DF4300D8
:10167C00323032342046696E616C204578702032ED
:10168C00002020202077616974696E672E2E2E2031
:02169C0020002C
:1017B70001260004220000000004270000000004A6
:0517C7002C00000000F1
:1017EC00758901758CF8758A30D28CD2A9D288D2C1
:0417FC00A8D2AF229E
:10137000C2AF1216D97F327E0012177BE509AD0885
:10138000FCEC120A7CE4FBFA7980783D1208F88FB5
:10139000258E248D238C22D2AFE4F530C3E5309422
:1013A0000F74809480502074322530F8E6FF743139
:1013B0002530F8A60774422530F8E6FF7441253041
:1013C000F8A607053080D5E4FFFE7D207C41AB25E3
:1013D000AA24A923A8221209FE500775402075509F
:1013E0005F22E4FFFE7D487C41AB25AA24A923A807
:1013F000221209FE50057540208003754023755068
:021400002322A5
:03000B0002157665
:10157600C0E0C0F0C083C082C0D075D000C000C03B
:1015860001C002C003C004C005C006C00712148E05
:101596000526AF267E007C017DF4120DD0ED4C7041
:1015A60003121370758CF8758A30D007D006D005F3
:1015B600D004D003D002D001D000D0D0D082D083C6
:0515C600D0F0D0E0327E
:1012D800A2B4E433FFA2B5E433F551A2B6E433F582
:1012E80052A2B7E433F553AC07E4120A81E4FBFADF
:1012F800F9783F1208F8E4FBFA79207841120807D8
:10130800C004C005C006C007AC51E4120A81D0036E
:10131800D002D001D000120807C004C005C006C022
:1013280007E55225E0FDE433FC120A7CD003D00225
:10133800D001D000120807C004C005C006C007E5E8
:101348005375F004A4FDACF0EC120A7CD003D00273
:10135800D001D0001208078F2F8E2E8D2D8C2C8F48
:071368002A8E298D288C2735
:01136F00225B
:1015090030B3507564FF75651675665C852A6A8502
:1015190029698528688527677B007A007951120E29
:10152900C57B007A007951E4FDFF1216167564FF38
:1015390075651675666C85256A85246985236885B0
:1015490022677B007A007951120EC57B007A0079F7
:101559005180127B007A007931E4FDFF1216167B67
:0C156900007A007941E4FD7F01121616A3
:011575002253
:1015CB00E4F52AF529F528F527F525F524F523F576
:1015DB0022F52B1217EC12183A1217D17BFF7A1641
:1015EB00797CE4FDFF1216167BFF7A16798DE4FDEC
:1015FB007F011216167FC87E0012177B1212D812AB
:0B160B0015097F327E0012177B80F172
:0218580080C04E
:071774001218147F017E0032
:10177B00EF1FAA0670011E4A600FE4FDEDC39478BB
:09178B007480948050EA0D80F393
:011794002232
:101800007580FFC2A2C2A0D2A1D2A2AF80C2A2EFB5
:0318100020E7EDE1
:0118130022B2
:10181400AE07121800C2A2C2A0C2A18E80D2A2003A
:03182400C2A2223B
:10182700AE07121800C2A2D2A0C2A18E80D2A20017
:03183700C2A22228
:061616008B618A6289630A
:10161C00E4FCEF901858934DFF121814ECC394107F
:10162C00748094805017AB61AA62A9638C82758315
:10163C0000120D91FF60061218270C80DFECC3948A
:0F164C00107480948050087F201218270C80EEB5
:01165B00226C
:1017D1007F381217747F011217747F061217747FF6
:0B17E1000C1218147F017E0002177B21
:0417CC00020A00000D
:10183A00438910758DFC758B18D28ED2ABD2AF222C
:03001B0002169E2C
:04169E00C0E0C0D018
:1016A200050BE50B7002050AC39464E50A94004039
:1016B20006750A00750B00C3E50B952BE50A94002D
:1016C2005008D290C291D2928002C292758DFC755E
:0216D2008B1873
:0516D400D0D0D0E0328F
:10148E00AF2AAE29AD28AC27AB25AA24A923A822C2
:10149E001209FE60025002805EE4FFFE7D207C4158
:1014AE00AB2AAA29A928A8271208F8C004C005C08B
:1014BE0006C007E4FFFE7D207C41AB25AA24A923AC
:1014CE00A8221208F8D003D002D001D000120803CF
:1014DE00E4FBFA79A07841120807120AB58F2B7E29
:1014EE0000D3EF9464748094804004752B6422C3FF
:0B14FE00EE648094805003E4F52B2284
:10080000020B21E86480F8E933E83360110460F0FA
:10081000ED33EC337009E8FCE9FDEAFEEBFF22045E
:1008200060DED3EB9FEA9EE99DE8C2E78CF0C2F759
:1008300095F0400CE8CCF8E9CDF9EACEFAEBCFFB25
:10084000120AEC85D0F05804700320D5B3E8047088
:10085000075002B2D5020B2B92D5EC0460F7E4CC22
:10086000C0E0C398F8603B94186008400DD0E0FBEE
:10087000020B03E4FBFAC9FC8028E830E406E4C973
:10088000FBE4CAFCE830E305E4C9CACBFCE8540742
:100890006010F8C3E913F9EA13FAEB13FBEC13FC4D
:1008A000D8F130F52FC3E49CFCEF9BFFEE9AFEEDF0
:1008B00099FDD0E0FBEF4E4D4C701222DB03020B92
:1008C00028EC2CFCEF33FFEE33FEED33FDED30E78B
:1008D000EB020B03EF2BFFEE3AFEED39FDD0E0FB10
:1008E00050130BBB0003020B2BED13FDEE13FEEFB9
:0808F00013FFEC13FC020B03E3
:1008F800EC4D6011E8497017ED33EC3304600DE4FA
:10090800FCFFFEFD22E933E8330470F8020B2112E4
:100918000AEC58046009E4CC2481500628500902E6
:100928000B2B284003020B28C0E0EB4A7044B98027
:1009380006D0E0FB020B17EF4E701CBD8008EBFFE2
:10094800EAFEE9FD80EBE98DF0A4FEE5F00209E19D
:10095800E9CDF9EAFEEBFFEF89F0A4FCE5F0CE89DA
:10096800F0A42EFFE435F0CD89F0A42DFEE435F097
:100978008067EF4E7005BD80D780C3EF8BF0A4ACC5
:10098800F0EE8BF0A42CFCE435F0F8EF8AF0A42C00
:10099800E5F038FCE433CB8DF0A42CFCE5F03BF813
:1009A800EE8AF0A42CFCE5F038F8E433CF89F0A403
:1009B8002CFCE5F038CF3400CE89F0A42FFFE5F009
:1009C8003EFEE433C98DF0A42EFEE5F039CD8AF061
:1009D800A42FFFE5F03EFEE43DFD33D0E0FB5007D9
:1009E8000BBB000F020B2BEC2CFCEF33FFEE33FE9E
:0609F800ED33FD020B03CC
:1009FE0074F8CC6480CCC86480C8F58204604FC3A0
:100A0E00EB9FF5F0EA9E42F0E99D42F0E89C45F03E
:100A1E00603C501DE5825FFFE582D313CB5BCBF4C8
:100A2E002B5582FB50280ABA002409B900200880F1
:100A3E001DE5825BFBE582D313CF5FCFF4C3132F8B
:100A4E005582FF50090EBE00050DBD00010CC3EB13
:100A5E009FF5F0EA9E42F0E99D42F0E89C45F06079
:090A6E0007CC4820E701B3EC229B
:100A770075F020800E75F010800575F0087D007EFA
:100A8700007F003392D530D503120E25EC3340108A
:100A9700EF33FFEE33FEED33FDEC33FCD5F0ED2203
:0E0AA700E5F0247EA2D513CC92E7CDCEFF223F
:100AB500EDD2E7CD33EC3392D524814006E4FFFE39
:100AC500FDFC22FCE4CFCECDCC24E0501174FF8098
:100AD500EDC3CC13CCCD13CDCE13CECF13CF047035
:070AE500F030D5DE020E2502
:100E6900E5782464F8E60578227861300702786429
:100E7900E475F001120E33020D782000EB7F2ED2BB
:100E8900008018EF540F2490D43440D4FF30040B61
:100E9900EF24BFB41A0050032461FFE579600215FD
:100EA90079057CE57C7002057B30070D7861E47576
:100EB900F001120E33EF020DBE0217067403D207BA
:100EC9008003E4C207F5788B618A628963E4F57966
:100ED900F57BF57CE57960077F20120EA480F57516
:100EE9007AFFC201C200C202C203C205C206C20819
:100EF900120E72FF700D3007057F00120EB5AF7C20
:100F0900AE7B22B4255FC2D5C204120E72FF24D073
:100F1900B40A00501A75F00A787930D50508B6FF79
:100F29000106C6A426F620D5047002D20380D9246E
:100F3900CFB41A00EF5004C2E5D2040211A2D201C3
:100F490080C6D20080C0D20280BCD2D580BAD20578
:100F590080B47F20120EA42002077401B5790040E5
:100F6900F1120E69FF120EA4020EDDD208D206801C
:100F790095120E69FB120E69FA120E69F94A4B7045
:100F89000679997A127BFF20022EE579602A7E0084
:100F99008E82758300120D9160060EEE657A70F0EF
:100FA900C2D5EBC0E0EAC0E0E9C0E0EE121202D01F
:100FB900E0F9D0E0FAD0E0FB120D78FF60AAEBC0AF
:100FC900E0EAC0E0E9C0E0120EA4D0E02401F9D0C3
:100FD900E03400FAD0E0FBE57A0460DCD57AD98008
:100FE90087D20280A21211E560F7E57A7001041236
:100FF9000B36A97A600DE57A600914F57A12128C1C
:10100900EF60F3EA30E702F404C3995077EAF42574
:101019007A0430E701E404F57A800D1211E560C124
:10102900EA057A257A120B36EA7877F630E701E491
:10103900257A04D57A0420050114121202E4C0E0CD
:1010490012128C7877E6601320E70714F6120E8CDB
:10105900802204F6D0E014C0E07F00120E8CE57AFD
:101069006007120E83157A800B300503120E83D0A8
:10107900E0020EDDD0E00480C51211E560A0E57A3A
:1010890004120B367877EAF6E57A20050260010446
:05109900240412120204
:10109E0074FF04C0E012128C120E8CE57A20050249
:1010AE006003120E83D0E0B57AE87F45120E967873
:1010BE0077E67F2B30E7047F2DF404C0E0120EA4F8
:1010CE00D0E075F00A84C0F0120E8DD0E0120E8DB5
:1010DE00020EDD791080027908C206C2088008D29D
:1010EE00D5790A8004790AC2D5E57A047002F57AB8
:1010FE00E4FAFDFEFF120E69FC7B08200113120EAE
:10110E0069FD7B1030000A120E69FE120E69FF7B1C
:10111E0020EC3382D592D55013C3E43000069FFFE6
:10112E00E49EFEE42001039DFDE49CFCE4CBF8C2AA
:10113E0001EC700CCFCECDCCE824F8F870F380170C
:10114E00C3EF33FFEE33FEED33FDEC33FCEB33FB3D
:10115E00994002FB0FD8E9EB300105F8D0E0C44806
:10116E00B201C0E00AEC4D4E4F78207B0070C2EA0F
:10117E00B57A0040BCC0E0121204D0F0D0E02001DD
:10118E0004C4C0E0C4B201C0F0120E8DD0F0D5F090
:10119E00EB020EDD120E430F7A5310E1580F4B4C3B
:1011AE000F474210E54F10ED4410ED490F6043100C
:1011BE00F3551024461082450FEE4712B9500F4FCB
:1011CE002D0F532E0F762B0F57230F742012A22A9A
:1011DE000F0F4800000F6EE57AB4FF03757A061202
:1011EE000E69FC120E69FD120E69FE120E69FF7871
:1011FE0070020B65790AA2D5200314300509B910C7
:10120E00020404B9080104A2D520060250010420EC
:10121E0002689202B579005034C0E07F2030031985
:10122E007F30A20272067205500F12125BC202C20A
:10123E0006C205C2087F30800F300503E9C0E012F8
:10124E000EA4300503D0E0F9D0E0B579CC30051707
:10125E007F30B9100C120EA47F583004077F7880AF
:10126E0003B90803120EA43002057F2D020EA47FCF
:10127E00202008F87F2B2006F322920280CF7F00D9
:10128E00B4070050052470F8E6FF22286E756C6CCA
:10129E002900D201120E693001F8C201787930D5D9
:1012AE000108F6020F0F2D50434958120E69240300
:1012BE00B405004001E49012B493120E95743A12E4
:0A12CE000E95D2037579040210E1B9
:100AEC00E9D2E7C933E833F892D5EDD2E7CD33EC50
:070AFC0033FC5002B2D522C9
:100B0300EC30E7100FBF000C0EBE00080DBD000453
:100B13000BEB6014A2D5EB13FCED92E7FD2274FFFF
:100B2300FCFDFEFF22E480F8A2D574FF13FC7D8058
:030B3300E480EF6C
:100B3600F920E72824F950037907E4F42402FB1886
:100B4600DBFDE624FB5014E9600DE4F618E604F636
:0F0B5600B40A08E4F6D9F57401F60A22C2D522D2
:100B6500ED33EC3392D5FA602AB4FF33EDC2E77B5F
:100B7500FF60067A0B798AE4227A0B799320D504F3
:100B85007A0B798E224E614E002B494E46002D4937
:100B95004E4600E47A08F608DAFC7B00740722E882
:100BA500C0E0ECC0E0EDC0E0EEC0E0EFC0E0EA750B
:100BB500F010A4CAABF075F04DA42BFBE435F0FCA6
:100BC500EA2410FAEB34C5FBEC34D9FCEDC2E7FF9F
:100BD50075F056A4F42411C5F0F434C58FF0A42A99
:100BE500E5F03BE43CF620E714120D38D0E0FFD0E9
:100BF500E0FED0E0FDD0E0FC120C6B8014F4041292
:100C05000D38D0E0FFD0E0FED0E0FDD0E0FC1208CA
:100C1500F8D0E0F8E6FAEDD2E7CD33EC332482FBE9
:100C2500E4C3CF33CFCE33CECD33CD33DBF37B0728
:100C350075F00A846004F6081B0AE5F0F6088FF0E3
:100C4500740AA4FFACF08EF0740AA42CFEACF0502C
:100C5500010C8DF0740AA42CFDE435F0F608DBDEFA
:030C6500740722EF
:100C6800020B2BEC5D046005E859047003020B21AC
:100C7800120AEC580460F6EC4860F2EC7004FDFED1
:100C8800FF22C860DB2481C85009C398600250065F
:100C9800020B289850CAF582E9294B4A7005AB82A5
:100CA800020B1775F0007C1A7880C3EF9BEE9AED63
:100CB80099400DC3EF9BFFEE9AFEED99FDE842F0D7
:100CC800DC23ACF0D0E0FFD0E0FED0E0FDAB82202A
:100CD800E7101BEB60BAEC2CFCEF33FFEE33FEEDB4
:100CE80033FD020B03E803F830E705C0F075F000A8
:100CF800EF2FFFEE33FEED33FD40B830E7C280AA98
:100D08003F8000004120000042C80000447A0000F3
:100D1800461C400047C35000497424004B18968075
:100D28004CBEBC205A0E1BCA6753C21C749DC5AE6C
:100D3800FB60065407601C2323120D66EB543860D1
:100D480009120D52120D611208F8ECF8EDF9EEFADD
:100D5800EFCB22EB120D6180F1543803241C900D67
:100D680008FE93FC0EEE93FD0EEE930ECE93FF223B
:10140E000215CBE493A3F8E493A34003F68001F214
:10141E0008DFF48029E493A3F85407240CC8C333DF
:10142E00C4540F4420C8834004F456800146F6DFAE
:10143E00E4800B01020408102040809017B3E47E74
:10144E00019360BCA3FF543F30E509541FFEE493A3
:10145E00A360010ECF54C025E060A840B8E493A36A
:10146E00FAE493A3F8E493A3C8C582C8CAC583CA95
:10147E00F0A3C8C582C8CAC583CADFE9DEE780BE4D
:0117D0000018
:100D7800BB010689828A83E0225002E722BBFE0279
:090D8800E32289828A83E49322AC
:100D9100BB010CE58229F582E5833AF583E0225017
:100DA10006E92582F8E622BBFE06E92582F8E22261
:0D0DB100E58229F582E5833AF583E493227B
:100DBE00BB010689828A83F0225002F722BBFE0114
:020DCE00F3220E
:100DD000BC000BBE0029EF8DF084FFADF022E4CC07
:100DE000F875F008EF2FFFEE33FEEC33FCEE9DECD0
:100DF000984005FCEE9DFE0FD5F0E9E4CEFD22ED16
:100E0000F8F5F0EE8420D21CFEADF075F008EF2F5F
:100E1000FFED33FD4007985006D5F0F222C398FD50
:050E20000FD5F0EA22ED
:0E0E2500C3E49FFFE49EFEE49DFDE49CFC22DE
:100E3300FAE6FB0808E6F925F0F618E6CA3AF622C0
:100E4300D083D082F8E4937012740193700DA3A33E
:100E530093F8740193F5828883E473740293686052
:060E6300EFA3A3A380DF52
:10170600EFB40A07740D121711740A309811A899CC
:10171600B8130CC2983098FDA899C298B811F63043
:0717260099FDC299F599221B
:00000001FF
